:020000040000FA
:0600000033EF3FF0120097
:020006001200E6
:06000800E9EF3BF01200DD
:02000E001200DE
:06001000000000000000EA
:0600180074EF3BF0120042
:02001E000700D9
:10002000697F0000000F00002800000097740000A6
:10003000770F000001000000657F0000730F0000D3
:1000400004000000447F0000D900000021000000EF
:10005000EB7E00008000000059000000CB7E000015
:10006000280F00002000000010000000FA0000002F
:040070000600000086
:0C007400A2D8C3EC2EF057EC2FF0E80EE1
:10008000E66E030EE66E55D8E552E55245EC23F0D8
:10009000060EE66E47EC3BF0E552000937E1350EFF
:1000A000E66EE66A2CEC3BF0E552E552020EE66E97
:1000B000080EE66E2CEC3BF0E552E552010EE66EC2
:1000C0003B0EE66E2CEC3BF0E552E552010EE66E7F
:1000D0003C0EE66E2CEC3BF0E552E552010EE66E6E
:1000E0003D0EE66E2CEC3BF0E552E552010EE66E5D
:1000F0003E0EE66E2CEC3BF0E552E552010EE66E4C
:100100003F0EE66E2CEC3BF0E552E5520F01335109
:10011000FDE0336B0FEC32F0B2EC20F0EEEC20F0AF
:100120001DEC21F0C2DACBEC21F08AD886EC2FF05E
:10013000EDD7D9CFE6FFE1CFD9FF040EE126DE6A85
:10014000DD6ADECF14F0DDCF15F0FD0EDBCF16F04B
:10015000FE0EDBCF17F015501718E8AE02D017349B
:1001600004D01650145C175015581DE2020EDB6ABD
:10017000030EDB6A020EDBCF14F0030EDBCF15F0AB
:10018000D890155004E6A00E145C000E155806E237
:10019000020EDB2A030EEEE3DB2AECD7DF2A010E88
:1001A000D0E3DB2ACED7040EE15C02E2E16AE5523D
:1001B000E16EE552E7CFD9FF1200936A956A1DEC14
:1001C0002CF0836A6CEC3BF0E80EE66E030EE66EF4
:1001D000B0DFE552E552570EE66E120EE66E86EC83
:1001E00036F0E552E552AE0EE66E240EE66E28ECD1
:1001F00037F0E552E552660EE66EB70EE66EE9ECB4
:1002000037F0E552E552020EE66EE66AC4EC38F0CD
:10021000E552E5520A0EE66EE66AD6EC38F0E55293
:10022000E552320EE66EE66AF5EC38F0E552E5523C
:1002300099EC30F099EC33F096EC3AF0C7EF3DF0E2
:100240000001D151010A01E100D2010A01E01200CE
:10025000080EE66E47EC3BF0E5520001D36FE85024
:10026000020A01E1A3D1030A04E0010A01E1ECD191
:100270001200090EE66E47EC3BF0E5520F0162AF4B
:1002800002D0D89003D0615D000E625901E3DCD149
:100290000A0EE66E47EC3BF0E5520001825D5AE142
:1002A0000B0EE66E47EC3BF0E5520001815D52E13A
:1002B000805150E10C0EE66E47EC3BF0E552010830
:1002C00049E1040EE66E47EC3BF0E552146E156A08
:1002D000E8500001AD1902E11550AE193BE0040EE3
:1002E000E66E47EC3BF0E5520001AD6FAE6B995105
:1002F0009A110EE10D0EE66E47EC3BF0E55200015F
:10030000B56FB66B010ED16F61CF63FF62CF64FF33
:100310000E0EE66E47EC3BF0E552166E176A010EC4
:100320000001156A9925146E9A51152214C008F01F
:1003300015C009F016C00DF017C00EF06EEC3CF0C1
:1003400017AE04D0046C051E000E052204C099F0FF
:1003500005C09AF00F0EE66E47EC3BF0E552000147
:10036000825D5AE1100EE66E47EC3BF0E55200016B
:10037000815D52E1805150E1110EE66E47EC3BF099
:10038000E552010849E1040EE66E47EC3BF0E55208
:10039000146E156AE8500001AF1902E11550B0194A
:1003A0003BE0040EE66E47EC3BF0E5520001AF6F18
:1003B000B06B9B519C110EE1120EE66E47EC3BF0C8
:1003C000E5520001B56FB66B010ED16F61CF63FFCF
:1003D00062CF64FF130EE66E47EC3BF0E552166EFB
:1003E000176A010E0001156A9B25146E9C51152297
:1003F00014C008F015C009F016C00DF017C00EF0BB
:100400006EEC3CF017AE04D0046C051E000E052205
:1004100004C09BF005C09CF0140EE66E47EC3BF068
:10042000E5520001825D5AE1150EE66E47EC3BF0A5
:10043000E5520001815D52E1805150E1160EE66EF9
:1004400047EC3BF0E552010849E1040EE66E47EC4B
:100450003BF0E552146E156AE8500001B11902E153
:100460001550B2193BE0040EE66E47EC3BF0E55246
:100470000001B16FB26B9D519E110EE1170EE66E39
:1004800047EC3BF0E5520001B56FB66B010ED16F42
:1004900061CF63FF62CF64FF180EE66E47EC3BF05E
:1004A000E552166E176A010E0001156A9D25146E3D
:1004B0009E51152214C008F015C009F016C00DF0A9
:1004C00017C00EF06EEC3CF017AE04D0046C051EA5
:1004D000000E052204C09DF005C09EF0190EE66EC8
:1004E00047EC3BF0E5520001825D01E0ADD01A0E11
:1004F000E66E47EC3BF0E5520001815D01E0A4D0DF
:10050000805101E0A1D01B0EE66E47EC3BF0E552B6
:10051000010801E099D0040EE66E47EC3BF0E5528D
:10052000146E156AE8500001B31902E11550B419B0
:1005300001E18AD0040EE66E47EC3BF0E552000183
:10054000B36FB46B9F51A0110EE11C0EE66E47EC29
:100550003BF0E5520001B56FB66B010ED16F61CF74
:1005600063FF62CF64FF1D0EE66E47EC3BF0E55281
:10057000166E176A010E0001156A9F25146EA051B0
:10058000152214C008F015C009F016C00DF017C0F0
:100590000EF06EEC3CF017AE04D0046C051E000E9D
:1005A000052204C09FF005C0A0F01200220EE66EE6
:1005B00047EC3BF0E5520F0162AF02D0D89003D078
:1005C000615D000E625940E21E0EE66E47EC3BF0A4
:1005D000E5520001825D08E11F0EE66E47EC3BF03C
:1005E000E5520001815D22E31E0EE66E47EC3BF012
:1005F000E5520001825D1AE3200EE66E47EC3BF007
:10060000E5520001825D09E1210EE66E47EC3BF008
:10061000E5520001D880815509E3200EE66E47ECD3
:100620003BF0E5520001D88082550EE2230EE66EC3
:1006300047EC3BF0E5520001B56FB66B010ED16F90
:1006400061CF63FF62CF64FF1200B63504E2B5519B
:100650000008000EB65519E30F0164516219E8AEA7
:1006600002D0623504D06151635D6251645908E380
:10067000900EE66E740EE66E1AEC34F0E552E5521A
:100680000001B56BB66BD16B1200B72B000EB8230F
:10069000B00ED880B755040EB85505E2B76BB86BED
:1006A000B507000EB65B80EF21F00001C451060AC9
:1006B00001E1A0D0030A01E17ED0010A5EE0070A51
:1006C0003FE0010A23E0030A10E0010A01E0120002
:1006D000B0D855EC20F0000901E1AAD00001BD6BB3
:1006E000BE6B010EC46FC66B1200D72B000ED82351
:1006F000C80ED8AF02D0D89003D0D75D000ED8591D
:1007000003E3D76BD86BC46B6FEF0CF0D72B000EE5
:10071000D823C80ED8AF02D0D89003D0D75D000E32
:10072000D85903E3D76BD86BC46BE8EC0EF073ECCD
:1007300020F0000901E17CD00001BF6BC06B58D0F4
:10074000D72B000ED823C80ED8AF02D0D89003D034
:10075000D75D000ED85903E3D76BD86BC46B3BEC65
:1007600010F073EC20F0000903E00001020EC46FEA
:1007700055EC20F000095CE01CD0D72B000ED823EC
:10078000C80ED8AF02D0D89003D0D75D000ED8598C
:1007900003E3D76BD86BC46BE3EC09F073EC20F088
:1007A000000903E00001020EC46F55EC20F00009BF
:1007B0003FE000011DD0D72B000ED823C80ED8AFC4
:1007C00002D0D89003D0D75D000ED85903E3D76B81
:1007D000D86BC46B57EC16F073EC20F0000903E003
:1007E0000001020EC46F55EC20F0000921E0000169
:1007F000C46B1200D72B000ED823C80ED8AF02D07E
:10080000D89003D0D75D000ED85903E3D76BD86BCF
:10081000C46BB3EC1DF073EC20F0000903E00001A1
:10082000020EC46F55EC20F0000902E00001C46B19
:100830001200E66A47EC3BF0E5520001806F010EC2
:10084000E66E47EC3BF0E5520001816F020EE66E6A
:1008500047EC3BF0E5520001826F030EE66E47EC79
:100860003BF0E5520001836F040EE66E47EC3BF06F
:10087000E5520001846F050EE66E47EC3BF0E55251
:100880000001856F060EE66E47EC3BF0E552000175
:10089000866F8351070A24E0010A1EE0030A18E06C
:1008A000010A12E0070A0CE0010A06E0030A1CE153
:1008B0008C0EE66E740E1BD0880EE66E740E17D08A
:1008C000840EE66E740E13D0800EE66E740E0FD09A
:1008D0007C0EE66E740E0BD0780EE66E740E07D0AA
:1008E000740EE66E740E03D0700EE66E740EE66E35
:1008F000E66AE66A6AEC30F0E552E552E552E55206
:100900006E0EE66E740EE66E030EE66EE66A6AEC36
:1009100030F0E552E552E552E5520A0E186E0E6EC1
:1009200082C009F054EC3CF009C014F0156A166A54
:10093000176A14AE03D015681668176814C0E6FF6E
:1009400015C0E6FF16C0E6FF17C0E6FF040EE66E10
:10095000E66A29EC30F0196E060EE15E195082C08D
:1009600009F00A0E0E6E54EC3CF005C014F0156A46
:10097000166A176A14AE03D015681668176814C093
:10098000E6FF15C0E6FF16C0E6FF17C0E6FF050E3E
:10099000E66EE66A29EC30F0186E060EE15E18503D
:1009A0006C0EE66E740EE66E060EE66EE66A6AEC95
:1009B00030F0E552E552E552E5520A0E186E0E6E21
:1009C00081C009F054EC3CF009C014F0156A166AB5
:1009D000176A14AE03D015681668176814C0E6FFCE
:1009E00015C0E6FF16C0E6FF17C0E6FF070EE66E6D
:1009F000E66A29EC30F0196E060EE15E195081C0EE
:100A000009F00A0E0E6E54EC3CF005C014F0156AA5
:100A1000166A176A14AE03D015681668176814C0F2
:100A2000E6FF15C0E6FF16C0E6FF17C0E6FF080E9A
:100A3000E66EE66A29EC30F0186E060EE15E18509C
:100A40006C0EE66E740EE66E090EE66EE66A6AECF1
:100A500030F0E552E552E552E5520A0E186E0E6E80
:100A600080C009F054EC3CF009C014F0156A166A15
:100A7000176A14AE03D015681668176814C0E6FF2D
:100A800015C0E6FF16C0E6FF17C0E6FF0A0EE66EC9
:100A9000E66A29EC30F0196E060EE15E195080C04E
:100AA00009F00A0E0E6E54EC3CF005C014F0156A05
:100AB000166A176A14AE03D015681668176814C052
:100AC000E6FF15C0E6FF16C0E6FF17C0E6FF0B0EF7
:100AD000E66EE66A29EC30F0186E060EE15E1850FC
:100AE000080EE66E47EC3BF0E5520001D36FE8508C
:100AF00004E1670EE66E740E0CD0D30504E1620EBD
:100B0000E66E740E06D0020ED35D0DE15D0EE66E4C
:100B1000740EE66E0C0EE66EE66A6AEC30F0E55294
:100B2000E552E552E552000185510C0A42E0070A00
:100B30003CE0010A36E0030A30E0010A2AE00F0A2D
:100B400024E0010A1EE0030A18E0010A12E0070A85
:100B50000CE0010A06E0030A30E1590EE66E740E5D
:100B60002FD0550EE66E740E2BD0510EE66E740E1D
:100B700027D04D0EE66E740E23D0490EE66E740E2D
:100B80001FD0450EE66E740E1BD0410EE66E740E3D
:100B900017D03D0EE66E740E13D0390EE66E740E4D
:100BA0000FD0350EE66E740E0BD0310EE66E740E5D
:100BB00007D02D0EE66E740E03D0700EE66E740E26
:100BC000E66EE66A010EE66E6AEC30F0E552E5523A
:100BD000E552E5526E0EE66E740EE66E030EE66E9C
:100BE000010EE66E6AEC30F0E552E552E552E55250
:100BF0000A0E186E0E6E84C009F054EC3CF009C069
:100C000014F0156A166A176A14AE03D015681668D0
:100C1000176814C0E6FF15C0E6FF16C0E6FF17C050
:100C2000E6FF040EE66E010EE66E29EC30F0196E5A
:100C3000060EE15E195084C009F00A0E0E6E54ECE7
:100C40003CF005C014F0156A166A176A14AE03D09A
:100C500015681668176814C0E6FF15C0E6FF16C0D1
:100C6000E6FF17C0E6FF050EE66E010EE66E29EC04
:100C700030F0186E060EE15E18506E0EE66E740EC1
:100C8000E66E060EE66E010EE66E6AEC30F0E55298
:100C9000E552E552E552140EE66EE66AE66AE66A49
:100CA000070EE66E010EE66E29EC30F0146E060EAD
:100CB000E15E14500A0E186E0E6E86C009F054ECF8
:100CC0003CF009C014F0156A166A176A14AE03D016
:100CD00015681668176814C0E6FF15C0E6FF16C051
:100CE000E6FF17C0E6FF090EE66E010EE66E29EC80
:100CF00030F0196E060EE15E195086C009F00A0E3A
:100D00000E6E54EC3CF005C014F0156A166A176AB2
:100D100014AE03D015681668176814C0E6FF15C036
:100D2000E6FF16C0E6FF17C0E6FF0A0EE66E010EEC
:100D3000E66E29EC30F0186E060EE15E18506E0E6D
:100D4000E66E740EE66E0B0EE66E010EE66E6AEC53
:100D500030F0E552E552E552E55261CF14F062CF32
:100D600015F0640E0D6E0E6A61CF08F062CF09F0C7
:100D70006EEC3CF008C014F009C015F0166A176A52
:100D800015AE02D01668176814C0E6FF15C0E6FF5E
:100D900016C0E6FF17C0E6FF0C0EE66E010EE66E0B
:100DA00029EC30F0186E060EE15E185061CF14F099
:100DB00062CF15F00A0E0D6E0E6A61CF08F062CF99
:100DC00009F06EEC3CF008C014F009C015F00A0EF2
:100DD0000D6E0E6A6EEC3CF004C014F005C015F008
:100DE000166A176A15AE02D01668176814C0E6FFB7
:100DF00015C0E6FF16C0E6FF17C0E6FF0D0EE66E53
:100E0000010EE66E29EC30F0186E060EE15E185009
:100E100061CF14F062CF15F00A0E0D6E0E6A61CF2D
:100E200008F062CF09F06EEC3CF004C014F005C08D
:100E300015F0166A176A15AE02D01668176814C046
:100E4000E6FF15C0E6FF16C0E6FF17C0E6FF0E0E70
:100E5000E66E010EE66E29EC30F0186E060EE15ECD
:100E600018502B0EE66E740EE66E0F0EE66E010E37
:100E7000E66E6AEC30F0E552E552E552E5521200BA
:100E8000E66A47EC3BF0E5520001806F010EE66E2A
:100E900047EC3BF0E5520001816F020EE66E47EC35
:100EA0003BF0E5520001826F030EE66E47EC3BF02B
:100EB000E5520001836F040EE66E47EC3BF0E5520D
:100EC0000001846F050EE66E47EC3BF0E552000131
:100ED000856F060EE66E47EC3BF0E5520001866F2B
:100EE0008351070A24E0010A1EE0030A18E0010A00
:100EF00012E0070A0CE0010A06E0030A1CE18C0E6E
:100F0000E66E740E1BD0880EE66E740E17D0840E3B
:100F1000E66E740E13D0800EE66E740E0FD07C0E4B
:100F2000E66E740E0BD0780EE66E740E07D0740E5B
:100F3000E66E740E03D0700EE66E740EE66EE66A10
:100F4000E66A6AEC30F0E552E552E552E5526E0E83
:100F5000E66E740EE66E030EE66EE66A6AEC30F03C
:100F6000E552E552E552E5520A0E186E0E6E82C049
:100F700009F054EC3CF009C014F0156A166A176ABF
:100F800014AE03D015681668176814C0E6FF15C0C4
:100F9000E6FF16C0E6FF17C0E6FF040EE66EE66A3F
:100FA00029EC30F0196E060EE15E195082C009F08E
:100FB0000A0E0E6E54EC3CF005C014F0156A166A69
:100FC000176A14AE03D015681668176814C0E6FFD8
:100FD00015C0E6FF16C0E6FF17C0E6FF050EE66E79
:100FE000E66A29EC30F0186E060EE15E18506C0EC1
:100FF000E66E740EE66E060EE66EE66A6AEC30F099
:10100000E552E552E552E5520A0E186E0E6E81C0A9
:1010100009F054EC3CF009C014F0156A166A176A1E
:1010200014AE03D015681668176814C0E6FF15C023
:10103000E6FF16C0E6FF17C0E6FF070EE66EE66A9B
:1010400029EC30F0196E060EE15E195081C009F0EE
:101050000A0E0E6E54EC3CF005C014F0156A166AC8
:10106000176A14AE03D015681668176814C0E6FF37
:1010700015C0E6FF16C0E6FF17C0E6FF080EE66ED5
:10108000E66A29EC30F0186E060EE15E18506C0E20
:10109000E66E740EE66E090EE66EE66A6AEC30F0F5
:1010A000E552E552E552E5520A0E186E0E6E80C00A
:1010B00009F054EC3CF009C014F0156A166A176A7E
:1010C00014AE03D015681668176814C0E6FF15C083
:1010D000E6FF16C0E6FF17C0E6FF0A0EE66EE66AF8
:1010E00029EC30F0196E060EE15E195080C009F04F
:1010F0000A0E0E6E54EC3CF005C014F0156A166A28
:10110000176A14AE03D015681668176814C0E6FF96
:1011100015C0E6FF16C0E6FF17C0E6FF0B0EE66E31
:10112000E66A29EC30F0186E060EE15E1850080EE3
:10113000E66E47EC3BF0E5520001D36FE85004E166
:10114000670EE66E740E0CD0D30504E1620EE66EF7
:10115000740E06D0020ED35D0DE15D0EE66E740EC8
:10116000E66E0C0EE66EE66A6AEC30F0E552E55289
:10117000E552E552000185510C0A42E0070A3CE0C5
:10118000010A36E0030A30E0010A2AE00F0A24E0EF
:10119000010A1EE0030A18E0010A12E0070A0CE047
:1011A000010A06E0030A30E1590EE66E740E2FD0F4
:1011B000550EE66E740E2BD0510EE66E740E27D0CF
:1011C0004D0EE66E740E23D0490EE66E740E1FD0DF
:1011D000450EE66E740E1BD0410EE66E740E17D0EF
:1011E0003D0EE66E740E13D0390EE66E740E0FD0FF
:1011F000350EE66E740E0BD0310EE66E740E07D00F
:101200002D0EE66E740E03D0700EE66E740EE66E52
:10121000020EE66E010EE66E6AEC30F0E552E55223
:10122000E552E552280EE66E740EE66EE66A010E91
:10123000E66E6AEC30F0E552E552E552E5526E0E8C
:10124000E66E740EE66E050EE66E010EE66E6AEC54
:1012500030F0E552E552E552E5520A0E186E0E6E78
:1012600084C009F054EC3CF009C014F0156A166A09
:10127000176A14AE03D015681668176814C0E6FF25
:1012800015C0E6FF16C0E6FF17C0E6FF060EE66EC5
:10129000010EE66E29EC30F0196E060EE15E195073
:1012A00084C009F00A0E0E6E54EC3CF005C014F038
:1012B000156A166A176A14AE03D01568166817689F
:1012C00014C0E6FF15C0E6FF16C0E6FF17C0E6FF34
:1012D000070EE66E010EE66E29EC30F0186E060E73
:1012E000E15E18506E0EE66E740EE66E080EE66E47
:1012F000010EE66E6AEC30F0E552E552E552E55239
:10130000140EE66EE66AE66AE66A090EE66E010EFD
:10131000E66E29EC30F0146E060EE15E14500A0EF3
:10132000186E0E6E86C009F054EC3CF009C014F043
:10133000156A166A176A14AE03D01568166817681E
:1013400014C0E6FF15C0E6FF16C0E6FF17C0E6FFB3
:101350000B0EE66E010EE66E29EC30F0196E060EED
:10136000E15E195086C009F00A0E0E6E54EC3CF096
:1013700005C014F0156A166A176A14AE03D0156812
:101380001668176814C0E6FF15C0E6FF16C0E6FF32
:1013900017C0E6FF0C0EE66E010EE66E29EC30F08B
:1013A000186E060EE15E1850240EE66E740EE66EA0
:1013B0000D0EE66E010EE66E6AEC30F0E552E55277
:1013C000E552E55212000001C551070A01E12ED293
:1013D000010A01E1CCD1030A01E16AD1010A01E16C
:1013E00011D1070A01E1BFD0010A6EE0030A0CE047
:1013F000010A01E0120044DD64EC20F0000901E183
:101400006DD20001010E10D23BDD0001C329146E24
:101410000A0E156E0E6E14C009F04FEC3FF005C0B9
:10142000C3F0050E0001055C0DE21F0EE66E740EA2
:10143000E66E0D0EE66EE66A6AEC30F0E552E552B5
:10144000E552E55282EC20F0000912E00001D329B8
:10145000146E096E030E0E6E54EC3CF005C0D3F012
:1014600005C0E6FF080EE66E2CEC3BF0E552E552B7
:101470009AEC20F000090FE00001D305D36FE834A7
:1014800002E3020ED36FD3C0E6FF080EE66E2CEC2B
:101490003BF0E552E55264EC20F0000901E11ED278
:1014A000080EE66E47EC3BF0E552E66EE66A1C0E6F
:1014B000E66E740EE66EDBEC22F0E552E552E55284
:1014C000E5520001020EB0D1DBDC0001C329146E2D
:1014D0000A0E156E0E6E14C009F04FEC3FF005C0F9
:1014E000C3F0050E0001055C0DE2280EE66E740ED9
:1014F000E66E040EE66EE66A6AEC30F0E552E552FE
:10150000E552E55282EC20F0000912E00001822948
:10151000146E096E180E0E6E54EC3CF005C082F08D
:1015200005C0E6FF020EE66E2CEC3BF0E552E552FC
:101530009AEC20F000090FE000018205826FE83488
:1015400002E3170E826F82C0E6FF020EE66E2CECFD
:101550003BF0E552E55264EC20F0000901E1BED118
:101560000001030E61D18CDC0001C329146E0A0E48
:10157000156E0E6E14C009F04FEC3FF005C0C3F0BD
:10158000050E0001055C0DE2280EE66E740EE66E97
:10159000070EE66EE66A6AEC30F0E552E552E55277
:1015A000E55282EC20F0000912E000018129146E5E
:1015B000096E3C0E0E6E54EC3CF005C081F005C087
:1015C000E6FF010EE66E2CEC3BF0E552E5529AEC9C
:1015D00020F000090FE000018105816FE83402E38B
:1015E0003B0E816F81C0E6FF010EE66E2CEC3BF0F6
:1015F000E552E55264EC20F0000901E16FD10001F1
:10160000040E12D13DDC0001C329146E0A0E156EC2
:101610000E6E14C009F04FEC3FF005C0C3F0050E8C
:101620000001055C0CE2240EE66E740EE66EE66ABE
:10163000E66A6AEC30F0E552E552E552E55282EC9A
:1016400020F0000912E000018329146E096E070ED4
:101650000E6E54EC3CF005C083F005C0E6FF030EAF
:10166000E66E2CEC3BF0E552E5529AEC20F00009D6
:1016700017E000018305836F010EE76E8319E8AE62
:1016800002D0E73402D0E750835D02E2070E836F99
:1016900083C0E6FF030EE66E2CEC3BF0E552E5520C
:1016A00064EC20F0000901E119D10001050EBCD065
:1016B00040EC07F00001C329146E0A0E156E0E6E81
:1016C00014C009F04FEC3FF005C0C3F0050E000157
:1016D000055C0EE2280EE66E740EE66E060EE66EF1
:1016E000010EE66E6AEC30F0E552E552E552E55245
:1016F00082EC20F0000918E000018429846F1F0E9D
:10170000E76E8419E8AE02D0843503D0E750D88064
:10171000845502E2010E846F84C0E6FF040EE66E7B
:101720002CEC3BF0E552E5529AEC20F0000917E072
:1017300000018405846F010EE76E8419E8AE02D0C3
:10174000E73402D0E750845D02E21F0E846F84C04C
:10175000E6FF040EE66E2CEC3BF0E552E55264EC3D
:1017600020F0000901E1BAD00001060E5DD040EC86
:1017700007F00001C329146E0A0E156E0E6E14C018
:1017800009F04FEC3FF005C0C3F0050E0001055C09
:101790000EE2240EE66E740EE66E020EE66E010E8A
:1017A000E66E6AEC30F0E552E552E552E55282EC25
:1017B00020F0000918E000018529856F0C0EE76E06
:1017C0008519E8AE02D0853503D0E750D88085551D
:1017D00002E2010E856F85C0E6FF050EE66E2CEC79
:1017E0003BF0E552E5529AEC20F0000917E00001C9
:1017F0008505856F010EE76E8519E8AE02D0E734E6
:1018000002D0E750855D02E20C0E856F85C0E6FFD1
:10181000050EE66E2CEC3BF0E552E55264EC20F050
:1018200000095CE00001070EC56F120040EC07F0F4
:101830000001C329146E0A0E156E0E6E14C009F055
:101840004FEC3FF005C0C3F0050E0001055C0EE251
:101850001F0EE66E740EE66E090EE66E010EE66E63
:101860006AEC30F0E552E552E552E55282EC20F0A8
:10187000000912E000018629146E096E640E0E6ED6
:1018800054EC3CF005C086F005C0E6FF060EE66E9F
:101890002CEC3BF0E552E5529AEC20F0000917E001
:1018A00000018605866F010EE76E8619E8AE02D04C
:1018B000E73402D0E750865D02E2630E866F86C091
:1018C000E6FF060EE66E2CEC3BF0E552E55264ECCA
:1018D00020F0000903E00001C56B120012000001B6
:1018E000C651040A01E154D2070A01E1ACD1010A50
:1018F00001E17AD1030A23E0010A01E012003B0E64
:10190000E66E47EC3BF0E552010817E10001CA6BB7
:10191000CB6B010ECE6FCF6B0F015E6B040E5E5D65
:1019200009E25E51EA6A5A0FE96E0F0EEA22EF6A87
:101930005E2BF4D70001010E29D2000180D10B0EDD
:10194000E66E740EE66EE66AE66A6AEC30F0E55220
:10195000E552E552E5521F0EE66E740EE66EE66A3B
:10196000010EE66E6AEC30F0E552E552E552E552C2
:101970005ACF14F0156A166A176A5ACFE6FF15C0D7
:10198000E6FF16C0E6FF17C0E6FF040EE66E010E86
:10199000E66E29EC30F0186E060EE15E18506E0E01
:1019A000E66E740EE66E050EE66E010EE66E6AECED
:1019B00030F0E552E552E552E5525BCF14F0156A7E
:1019C000166A176A5BCFE6FF15C0E6FF16C0E6FF92
:1019D00017C0E6FF060EE66E010EE66E29EC30F04B
:1019E000186E060EE15E18506E0EE66E740EE66E10
:1019F000070EE66E010EE66E6AEC30F0E552E55237
:101A0000E552E5525CCF14F0156A166A176A5CCF8E
:101A1000E6FF15C0E6FF16C0E6FF17C0E6FF080E9A
:101A2000E66E010EE66E29EC30F0186E060EE15EF1
:101A300018506E0EE66E740EE66E090EE66E010E1E
:101A4000E66E6AEC30F0E552E552E552E5525DCFC4
:101A500014F0156A166A176A5DCFE6FF15C0E6FF37
:101A600016C0E6FF17C0E6FF0A0EE66E010EE66E30
:101A700029EC30F0186E060EE15E1850050EE66E89
:101A8000740EE66E0B0EE66E010EE66E6AEC30F03A
:101A9000E552E552E552E5520001C329146E0A0EE3
:101AA000156E0E6E14C009F04FEC3FF005C0C3F088
:101AB000050E0001055C33E2030ECA1901E1CB51AA
:101AC00020E0020ECA1901E1CB5115E0010ECA193E
:101AD00001E1CB510AE0CA5122E1CB5120E16E0E67
:101AE000E66E740EE66E040E11D06E0EE66E740E87
:101AF000E66E060E0BD06E0EE66E740EE66E080EE7
:101B000005D06E0EE66E740EE66E0A0EE66E010EDF
:101B1000E66E6AEC30F0E552E552E552E55282ECB1
:101B200020F000091CE05A0E0001CA25E96E0F0ED4
:101B3000CB21EA6EEF28146E0A0E156E0E6E14C0DD
:101B400009F04FEC3FF00550E66E5A0E0001CA2531
:101B5000E96E0F0ECB21EA6EE552E750EF6E9AEC7C
:101B600020F0000925E05A0E0001CA25E96E0F0E8B
:101B7000CB21EA6EEF04E66E5A0ECA25E96E0F0E0F
:101B8000CB21EA6EE552E750EF6E5A0ECA25E96E98
:101B90000F0ECB21EA6EEFCF14F0000E145C08E2BA
:101BA0005A0ECA25E96E0F0ECB21EA6E090EEF6EB2
:101BB00064EC20F0000910E0030E0001CBAF02D06E
:101BC000D89003D0CA5D000ECB5903E3020EC66F56
:101BD00003D0CA2B000ECB2373EC20F0000901E1E7
:101BE000F6D00001030ED2D03C0EE66E47EC3BF07F
:101BF000E5520F015A5D18E13D0EE66E47EC3BF0F1
:101C0000E5520F015B5D10E13E0EE66E47EC3BF0E6
:101C1000E5520F015C5D08E13F0EE66E47EC3BF0DC
:101C2000E5520F015D5D03E00001CE6BCF6B00015B
:101C3000CE51CF1104E1BF6BC06BC46B1200C76BF8
:101C4000020EC46F1200F40EE66E730EE66EE66AC4
:101C5000E66A6AEC30F0E552E552E552E552E30EF1
:101C6000E66E730EE66EE66A010EE66E6AEC30F022
:101C7000E552E552E552E5520001C329146E0A0E01
:101C8000156E0E6E14C009F04FEC3FF005C0C3F0A6
:101C9000050E0001055C0EE26E0EE66E740EE66E39
:101CA0000F0EE66E010EE66E6AEC30F0E552E5527C
:101CB000E552E55264EC20F0000901E188D0DF0E26
:101CC000E66E730EE66E1AEC34F0E552E5523C0E09
:101CD000E66E47EC3BF0E552146E156A166A176A19
:101CE000E66E15C0E6FF16C0E6FF17C0E6FFB1ECD2
:101CF00034F0E552E552E552E5523D0EE66E47EC12
:101D00003BF0E552146E156A166A176AE66E15C046
:101D1000E6FF16C0E6FF17C0E6FFB1EC34F0E5526F
:101D2000E552E552E5523E0EE66E47EC3BF0E552D9
:101D3000146E156A166A176AE66E15C0E6FF16C0BD
:101D4000E6FF17C0E6FFB1EC34F0E552E552E5528C
:101D5000E5523F0EE66E47EC3BF0E552146E156A15
:101D6000166A176AE66E15C0E6FF16C0E6FF17C0D2
:101D7000E6FFB1EC34F0E552E552E552E552230EB0
:101D8000E66EECEC33F0E5520001040EC66F120073
:101D9000CE0EE66E730EE66EE66AE66A6AEC30F028
:101DA000E552E552E552E552BD0EE66E730EE66E63
:101DB000E66A010EE66E6AEC30F0E552E552E55255
:101DC000E55255EC20F0000902E00001C46B12005E
:101DD0000001C751030A01E1FDD0010A01E1A9D0C8
:101DE000030A54E0010A01E01200AC0EE66E730E25
:101DF000E66EE66AE66A6AEC30F0E552E552E552D4
:101E0000E5529B0EE66E730EE66EE66A010EE66E16
:101E10006AEC30F0E552E552E552E5520001C32983
:101E2000146E0A0E156E0E6E14C009F04FEC3FF0E2
:101E300005C0C3F0050E0001055C0DE26E0EE66EF6
:101E4000740EE66E0F0EE66EE66A6AEC30F0E5524E
:101E5000E552E552E55264EC20F0000908E000018B
:101E6000BF6BC06BC16BC26BC56B040EC46F9AECC9
:101E700020F0000903E00001010EC76F82EC20F0A2
:101E8000000901E1F7D00001030EA2D08A0EE66E30
:101E9000730EE66EE66AE66A6AEC30F0E552E552E9
:101EA000E552E552790EE66E730EE66EE66A010EB5
:101EB000E66E6AEC30F0E552E552E552E55200017B
:101EC000C329146E0A0E156E0E6E14C009F04FEC85
:101ED0003FF005C0C3F0050E0001055C0EE26E0E7A
:101EE000E66E740EE66E0F0EE66E010EE66E6AEC9E
:101EF00030F0E552E552E552E55264EC20F000097D
:101F000009E00001BF6BC06BC16BC26BD06B050EEB
:101F1000C46FD46B9AEC20F0000903E00001020EBC
:101F2000C76F82EC20F0000901E1A4D00001C76B6B
:101F30001200680EE66E730EE66EE66AE66A6AECFA
:101F400030F0E552E552E552E552570EE66E730E5B
:101F5000E66EE66A010EE66E6AEC30F0E552E55296
:101F6000E552E5520001C329146E0A0E156E0E6E7D
:101F700014C009F04FEC3FF005C0C3F0050E00019E
:101F8000055C0DE26E0EE66E740EE66E0F0EE66EEA
:101F9000E66A6AEC30F0E552E552E552E55264EC4F
:101FA00020F0000908E00001BF6BC06BC16BC26B81
:101FB000D26B060EC46F9AEC20F0000903E000011A
:101FC000030EC76F82EC20F0000954E00001010EFF
:101FD000C76F1200460EE66E730EE66EE66AE66A9C
:101FE0006AEC30F0E552E552E552E552350EE66E08
:101FF000730EE66EE66A010EE66E6AEC30F0E552AC
:10200000E552E552E5520001C329146E0A0E156E21
:102010000E6E14C009F04FEC3FF005C0C3F0050E82
:102020000001055C0EE26E0EE66E740EE66E0F0E9B
:10203000E66E010EE66E6AEC30F0E552E552E552CE
:10204000E55264EC20F0000908E00001BF6BC06BB2
:10205000C16BC26BC86B030EC46F9AEC20F0000911
:1020600002E00001C76B82EC20F0000903E00001F0
:10207000020EC76F12000001C851020A01E103D12C
:10208000030A01E1A2D0010A01E01200C951010ACC
:102090004FE0010A01E01200240EE66E730EE66EB8
:1020A000E66AE66A6AEC30F0E552E552E552E5523E
:1020B000130EE66E730EE66EE66A010EE66E6AECCD
:1020C00030F0E552E552E552E5520001C329146EA5
:1020D0000A0E156E0E6E14C009F04FEC3FF005C0ED
:1020E000C3F0050E0001055C0DE26E0EE66E740E87
:1020F000E66E0F0EE66EE66A6AEC30F0E552E552E7
:10210000E552E55264EC20F0000903E00001010E05
:10211000C86F9AEC20F0000903E00001010EC96FBE
:1021200082EC20F0000950E00001010EC96F12009E
:10213000020EE66E730EE66EE66AE66A6AEC30F050
:10214000E552E552E552E552F10EE66E720EE66E8C
:10215000E66A010EE66E6AEC30F0E552E552E552B1
:10216000E5520001C329146E0A0E156E0E6E14C0DE
:1021700009F04FEC3FF005C0C3F0050E0001055C0F
:102180000EE26E0EE66E740EE66E0F0EE66E010E39
:10219000E66E6AEC30F0E552E552E552E55264EC49
:1021A00020F0000905E00001CC6BCD6B020EC86F7A
:1021B0009AEC20F0000902E00001C96B82EC20F0EB
:1021C000000902E00001C96B1200E00EE66E720E1B
:1021D000E66EE66AE66A6AEC30F0E552E552E552F0
:1021E000E552D90EE66E720EE66EE66A010EE66EF6
:1021F0006AEC30F0E552E552E552E5523B0EE66EF0
:1022000047EC3BF0E552010804E1D50EE66E720E94
:1022100003D0D10EE66E720EE66E060EE66E010E6D
:10222000E66E6AEC30F0E552E552E552E552C90E31
:10223000E66E720EE66E090EE66E010EE66E6AEC52
:1022400030F0E552E552E552E55282EC20F000090B
:1022500008E0010EE66E3B0EE66E2CEC3BF0E5521C
:10226000E5529AEC20F0000907E0E66A3B0EE66EC4
:102270002CEC3BF0E552E55264EC20F0000901E162
:1022800049D2000140D23C0EE66E47EC3BF0E552ED
:102290000001896F3D0EE66E47EC3BF0E552000110
:1022A0008A6F3E0EE66E47EC3BF0E55200018B6F05
:1022B0003F0EE66E47EC3BF0E55200018C6FB80E26
:1022C000E66E720EE66EE66AE66A6AEC30F0E55299
:1022D000E552E552E5521F0EE66E740EE66EE66AB2
:1022E000010EE66E6AEC30F0E552E552E552E55239
:1022F00089C014F0156A166A176A14AE03D01568FF
:102300001668176814C0E6FF15C0E6FF16C0E6FFA2
:1023100017C0E6FF040EE66E010EE66E29EC30F003
:10232000186E060EE15E18506E0EE66E740EE66EC6
:10233000050EE66E010EE66E6AEC30F0E552E552EF
:10234000E552E5528AC014F0156A166A176A14AE8F
:1023500003D015681668176814C0E6FF15C0E6FFBD
:1023600016C0E6FF17C0E6FF060EE66E010EE66E2B
:1023700029EC30F0186E060EE15E18506E0EE66E17
:10238000740EE66E070EE66E010EE66E6AEC30F035
:10239000E552E552E552E5528BC014F0156A166A13
:1023A000176A14AE03D015681668176814C0E6FFE4
:1023B00015C0E6FF16C0E6FF17C0E6FF080EE66E82
:1023C000010EE66E29EC30F0186E060EE15E185034
:1023D0006E0EE66E740EE66E090EE66E010EE66E89
:1023E0006AEC30F0E552E552E552E5528CC014F04B
:1023F000156A166A176A14AE03D01568166817684E
:1024000014C0E6FF15C0E6FF16C0E6FF17C0E6FFE2
:102410000A0EE66E010EE66E29EC30F0186E060E1E
:10242000E15E1850050EE66E740EE66E0B0EE66E5B
:10243000010EE66E6AEC30F0E552E552E552E552E7
:102440000001C329146E0A0E156E0E6E14C009F039
:102450004FEC3FF005C0C3F0050E0001055C33E210
:10246000030ECC1901E1CD5120E0020ECC1901E19F
:10247000CD5115E0010ECC1901E1CD510AE0CC514E
:1024800022E1CD5120E16E0EE66E740EE66E040E72
:1024900011D06E0EE66E740EE66E060E0BD06E0E4A
:1024A000E66E740EE66E080E05D06E0EE66E740EC5
:1024B000E66E0A0EE66E010EE66E6AEC30F0E5524C
:1024C000E552E552E55282EC20F0000901E17FD0AF
:1024D000890E0001CC25E96E000ECD21EA6EEF28B1
:1024E000146E096E0A0E0E6E54EC3CF00550E66E4A
:1024F000890E0001CC25E96E000ECD21EA6EE55271
:10250000E750EF6E030ECC1901E1CD5147E0020E0A
:10251000CC1901E1CD512FE0010ECC1901E1CD51D3
:1025200017E0CC5154E1CD5152E189C0E6FF3C0E99
:10253000E66E2CEC3BF0E552E5523C0EE66E47ECC5
:102540003BF0E552E66EE66AB50EE66E720E38D0E6
:102550008AC0E6FF3D0EE66E2CEC3BF0E552E552FC
:102560003D0EE66E47EC3BF0E552E66EE66AB20ED3
:10257000E66E720E25D08BC0E6FF3E0EE66E2CECAA
:102580003BF0E552E5523E0EE66E47EC3BF0E5527D
:10259000E66EE66AAF0EE66E720E12D08CC0E6FFF3
:1025A0003F0EE66E2CEC3BF0E552E5523F0EE66E38
:1025B00047EC3BF0E552E66EE66AAC0EE66E720E54
:1025C000E66EDBEC22F0E552E552E552E5529AEC7C
:1025D00020F0000901E189D0890E0001CC25E96EC7
:1025E000000ECD21EA6EEF04E66E890ECC25E96E71
:1025F000000ECD21EA6EE552E750EF6E890ECC2534
:10260000E96E000ECD21EA6EEFCF14F0143408E32A
:10261000890ECC25E96E000ECD21EA6E090EEF6E13
:10262000030ECC1901E1CD5147E0020ECC1901E1B6
:10263000CD512FE0010ECC1901E1CD5117E0CC5165
:1026400054E1CD5152E189C0E6FF3C0EE66E2CEC20
:102650003BF0E552E5523C0EE66E47EC3BF0E552AE
:10266000E66EE66AB50EE66E720E38D08AC0E6FFF8
:102670003D0EE66E2CEC3BF0E552E5523D0EE66E6B
:1026800047EC3BF0E552E66EE66AB20EE66E720E7D
:1026900025D08BC0E6FF3E0EE66E2CEC3BF0E552FB
:1026A000E5523E0EE66E47EC3BF0E552E66EE66A1A
:1026B000AF0EE66E720E12D08CC0E6FF3F0EE66ED5
:1026C0002CEC3BF0E552E5523F0EE66E47EC3BF05A
:1026D000E552E66EE66AAC0EE66E720EE66EDBEC76
:1026E00022F0E552E552E552E55264EC20F0000993
:1026F00011E0030E0001CDAF02D0D89003D0CC5D25
:10270000000ECD5904E3BF6BC06BC86B1200CC2B1D
:10271000000ECD231200090EE66E47EC3BF0E552A9
:102720000001976F986BD451030A6DE0010A49E0EC
:10273000030A25E0010A01E08ED00A0EE66E47EC9E
:102740003BF0E55200018F6F906B0B0EE66E47EC8D
:102750003BF0E55200018D6F8E6B0C0EE66E47EC80
:102760003BF0E5520001916F926B0E0EE66E47EC66
:102770003BF0E5520001936F946B0D0E65D00F0E88
:10278000E66E47EC3BF0E55200018F6F906B100E48
:10279000E66E47EC3BF0E55200018D6F8E6B110E3B
:1027A000E66E47EC3BF0E5520001916F926B130E21
:1027B000E66E47EC3BF0E5520001936F946B120E0E
:1027C00043D0140EE66E47EC3BF0E55200018F6FEC
:1027D000906B150EE66E47EC3BF0E55200018D6FF5
:1027E0008E6B160EE66E47EC3BF0E5520001916FE2
:1027F000926B180EE66E47EC3BF0E5520001936FCA
:10280000946B170E21D0190EE66E47EC3BF0E552A3
:1028100000018F6F906B1A0EE66E47EC3BF0E552AD
:1028200000018D6F8E6B1B0EE66E47EC3BF0E552A0
:102830000001916F926B1D0EE66E47EC3BF0E55286
:102840000001936F946B1C0EE66E47EC3BF0E55273
:102850000001956F966BAA0EE66E720EE66EE66A42
:10286000E66A6AEC30F0E552E552E552E5520001C5
:10287000D429146E156A166A176AE66E15C0E6FF4B
:1028800016C0E6FF17C0E6FF010EE66EE66A29EC09
:1028900030F0186E060EE15E1850280EE66E740ECB
:1028A000E66E020EE66EE66A6AEC30F0E552E5523C
:1028B000E552E5528FC014F090C015F00A0E0D6E6F
:1028C0000E6A8FC008F090C009F06EEC3CF008C0B2
:1028D00014F009C015F0166A176A15AE02D0166812
:1028E000176814C0E6FF15C0E6FF16C0E6FF17C064
:1028F000E6FF040EE66EE66A29EC30F0186E060E6E
:10290000E15E18508FC014F090C015F00A0E0D6EE5
:102910000E6A8FC008F090C009F06EEC3CF004C065
:1029200014F005C015F0166A176A15AE02D01668C5
:10293000176814C0E6FF15C0E6FF16C0E6FF17C013
:10294000E6FF050EE66EE66A29EC30F0186E060E1C
:10295000E15E18506C0EE66E740EE66E060EE66EC4
:10296000E66A6AEC30F0E552E552E552E5528DC078
:1029700014F08EC015F00A0E0D6E0E6A8DC008F0B0
:102980008EC009F06EEC3CF008C014F009C015F0E0
:10299000166A176A15AE02D01668176814C0E6FFEB
:1029A00015C0E6FF16C0E6FF17C0E6FF070EE66E8D
:1029B000E66A29EC30F0186E060EE15E18508DC004
:1029C00014F08EC015F00A0E0D6E0E6A8DC008F060
:1029D0008EC009F06EEC3CF004C014F005C015F098
:1029E000166A176A15AE02D01668176814C0E6FF9B
:1029F00015C0E6FF16C0E6FF17C0E6FF080EE66E3C
:102A0000E66A29EC30F0186E060EE15E1850A50E4D
:102A1000E66E720EE66E090EE66EE66A6AEC30F05D
:102A2000E552E552E552E55297C014F098C015F012
:102A30000A0E0D6E0E6A97C008F098C009F06EEC91
:102A40003CF008C014F009C015F0166A176A15AEFC
:102A500002D01668176814C0E6FF15C0E6FF16C05E
:102A6000E6FF17C0E6FF0D0EE66EE66A29EC30F0D1
:102A7000186E060EE15E185097C014F098C015F05D
:102A80000A0E0D6E0E6A97C008F098C009F06EEC41
:102A90003CF004C014F005C015F0166A176A15AEB4
:102AA00002D01668176814C0E6FF15C0E6FF16C00E
:102AB000E6FF17C0E6FF0E0EE66EE66A29EC30F080
:102AC000186E060EE15E18502B0EE66E740EE66E62
:102AD0000F0EE66EE66A6AEC30F0E552E552E5521A
:102AE000E5520001010E911906E1925104E1A00E98
:102AF000E66E720E03D09B0EE66E720EE66EE66A0E
:102B0000010EE66E6AEC30F0E552E552E552E55210
:102B100095C014F096C015F00A0E0D6E0E6A95C0A1
:102B200008F096C009F06EEC3CF008C014F009C043
:102B300015F0166A176A15AE02D01668176814C029
:102B4000E6FF15C0E6FF16C0E6FF17C0E6FF040E5D
:102B5000E66E010EE66E29EC30F0186E060EE15EB0
:102B6000185095C014F096C015F00A0E0D6E0E6A3E
:102B700095C008F096C009F06EEC3CF004C014F06B
:102B800005C015F0166A176A15AE02D016681768E8
:102B900014C0E6FF15C0E6FF16C0E6FF17C0E6FF4B
:102BA000050EE66E010EE66E29EC30F0186E060E8C
:102BB000E15E1850960EE66E720EE66E060EE66E3A
:102BC000010EE66E6AEC30F0E552E552E552E55250
:102BD000920EE66E720EE66E0A0EE66E010EE66E5E
:102BE0006AEC30F0E552E552E552E55293C014F03C
:102BF00094C015F00A0E0D6E0E6A93C008F094C0D2
:102C000009F06EEC3CF008C014F009C015F0166A2B
:102C1000176A15AE02D01668176814C0E6FF15C013
:102C2000E6FF16C0E6FF17C0E6FF0D0EE66E010ECA
:102C3000E66E29EC30F0186E060EE15E185093C077
:102C400014F094C015F00A0E0D6E0E6A93C008F0D1
:102C500094C009F06EEC3CF004C014F005C015F00F
:102C6000166A176A15AE02D01668176814C0E6FF18
:102C700015C0E6FF16C0E6FF17C0E6FF0E0EE66EB3
:102C8000010EE66E29EC30F0186E060EE15E18506B
:102C9000900EE66E720EE66E0F0EE66E010EE66E9A
:102CA0006AEC30F0E552E552E552E55212000001BF
:102CB000D051070A02E1C4EF1AF0010A01E155D32D
:102CC000030A01E18CD2010A01E1C4D1070A01E142
:102CD000FDD0010A4FE0030A0EE0010A01E01200F4
:102CE0001ADD64EC20F0000902E131EF1BF0000175
:102CF000010EC2EF1AF00FDD0001C329146E0A0E97
:102D0000156E0E6E14C009F04FEC3FF005C0C3F015
:102D1000050E0001055C0DE26E0EE66E740EE66EA9
:102D2000010EE66EE66A6AEC30F0E552E552E552D5
:102D3000E55282EC20F0000907E00001D429D46FAD
:102D4000E850030801E2D46B9AEC20F0000908E097
:102D50000001D405D46F000ED45D02E2030ED46FDF
:102D600064EC20F0000902E131EF1BF00001020EDB
:102D7000C2EF1AF0D0DC0001C329146E0A0E156EE2
:102D80000E6E14C009F04FEC3FF005C0C3F0050E05
:102D90000001055C0DE2240EE66E740EE66EE66A36
:102DA000010EE66E6AEC30F0E552E552E552E5526E
:102DB00082EC20F0000921E0010E0001916F926B7E
:102DC000D451030A12E0010A0CE0030A06E0010AEA
:102DD00014E191C0E6FF0C0E0BD091C0E6FF110E7E
:102DE00007D091C0E6FF160E03D091C0E6FF1B0E80
:102DF000E66E2CEC3BF0E552E5529AEC20F000092F
:102E000020E00001916B926BD451030A12E0010A99
:102E10000CE0030A06E0010A14E191C0E6FF0C0E83
:102E20000BD091C0E6FF110E07D091C0E6FF160E41
:102E300003D091C0E6FF1B0EE66E2CEC3BF0E55292
:102E4000E55264EC20F0000902E131EF1BF00001D3
:102E5000D451030A27E0010A1AE0030A0DE0010A2F
:102E600032E10C0EE66E47EC3BF0E552E66EE66AA8
:102E70008D0EE66E720E20D0110EE66E47EC3BF022
:102E8000E552E66EE66A8A0EE66E720E15D0160EF2
:102E9000E66E47EC3BF0E552E66EE66A870EE66EBC
:102EA000720E0AD01B0EE66E47EC3BF0E552E66E62
:102EB000E66A840EE66E720EE66EDBEC22F0E552F8
:102EC000E552E552E5520001030E5CD324DC00011B
:102ED000C329146E0A0E156E0E6E14C009F04FEC65
:102EE0003FF005C0C3F0050E0001055C0DE2280EA1
:102EF000E66E740EE66E040EE66EE66A6AEC30F07C
:102F0000E552E552E552E55282EC20F0000932E04C
:102F1000010E00018F258F6F000E9021906F180E0B
:102F20000D6E0E6A8FC008F090C009F06EEC3CF098
:102F300004C08FF005C090F00001D451030A12E0E4
:102F4000010A0CE0030A06E0010A14E18FC0E6FF63
:102F50000A0E0BD08FC0E6FF0F0E07D08FC0E6FF22
:102F6000140E03D08FC0E6FF190EE66E2CEC3BF07A
:102F7000E552E5529AEC20F0000928E00001010E2C
:102F80008F5F000E905B800E901503E0170E8F6F21
:102F9000906BD451030A12E0010A0CE0030A06E028
:102FA000010A14E18FC0E6FF0A0E0BD08FC0E6FFC6
:102FB0000F0E07D08FC0E6FF140E03D08FC0E6FFC0
:102FC000190EE66E2CEC3BF0E552E55264EC20F075
:102FD000000901E146D30001D451030A27E0010AA8
:102FE0001AE0030A0DE0010A32E10A0EE66E47EC30
:102FF0003BF0E552E66EE66A810EE66E720E20D078
:103000000F0EE66E47EC3BF0E552E66EE66A7E0E8A
:10301000E66E720E15D0140EE66E47EC3BF0E552EC
:10302000E66EE66A7B0EE66E720E0AD0190EE66E4A
:1030300047EC3BF0E552E66EE66A780EE66E720EFD
:10304000E66EDBEC22F0E552E552E552E552000176
:10305000040E98D28BEC13F00001C329146E0A0EF3
:10306000156E0E6E14C009F04FEC3FF005C0C3F0B2
:10307000050E0001055C0DE2280EE66E740EE66E8C
:10308000070EE66EE66A6AEC30F0E552E552E5526C
:10309000E55282EC20F0000932E0010E00018D259E
:1030A0008D6F000E8E218E6F3C0E0D6E0E6A8DC0E0
:1030B00008F08EC009F06EEC3CF004C08DF005C045
:1030C0008EF00001D451030A12E0010A0CE0030A59
:1030D00006E0010A14E18DC0E6FF0B0E0BD08DC097
:1030E000E6FF100E07D08DC0E6FF150E03D08DC091
:1030F000E6FF1A0EE66E2CEC3BF0E552E5529AEC38
:1031000020F0000928E00001010E8D5F000E8E5BAB
:10311000800E8E1503E03B0E8D6F8E6BD451030A2B
:1031200012E0010A0CE0030A06E0010A14E18DC076
:10313000E6FF0B0E0BD08DC0E6FF100E07D08DC042
:10314000E6FF150E03D08DC0E6FF1A0EE66E2CECDE
:103150003BF0E552E55264EC20F0000901E181D238
:103160000001D451030A27E0010A1AE0030A0DE026
:10317000010A32E10B0EE66E47EC3BF0E552E66EDB
:10318000E66A750EE66E720E20D0100EE66E47EC03
:103190003BF0E552E66EE66A720EE66E720E15D0F0
:1031A000150EE66E47EC3BF0E552E66EE66A6F0EF2
:1031B000E66E720E0AD01A0EE66E47EC3BF0E55250
:1031C000E66EE66A6C0EE66E720EE66EDBEC22F0E0
:1031D000E552E552E552E5520001050ED3D18BECE4
:1031E00013F00001C329146E0A0E156E0E6E14C082
:1031F00009F04FEC3FF005C0C3F0050E0001055C7F
:103200000EE2280EE66E740EE66E040EE66E010EF9
:10321000E66E6AEC30F0E552E552E552E55282EC9A
:1032200020F0000932E0010E00019525956F000E97
:103230009621966F3C0E0D6E0E6A95C008F096C0F2
:1032400009F06EEC3CF004C095F005C096F000016A
:10325000D451030A12E0010A0CE0030A06E0010A55
:1032600014E195C0E6FF0D0E0BD095C0E6FF120EDF
:1032700007D095C0E6FF170E03D095C0E6FF1C0EE1
:10328000E66E2CEC3BF0E552E5529AEC20F000099A
:1032900028E00001010E955F000E965B800E9615EA
:1032A00003E03B0E956F966BD451030A12E0010ABE
:1032B0000CE0030A06E0010A14E195C0E6FF0D0EDA
:1032C0000BD095C0E6FF120E07D095C0E6FF170E93
:1032D00003D095C0E6FF1C0EE66E2CEC3BF0E552E9
:1032E000E55264EC20F0000901E1BBD10001D451AA
:1032F000030A27E0010A1AE0030A0DE0010A32E19D
:103300000D0EE66E47EC3BF0E552E66EE66A690E9E
:10331000E66E720E20D0120EE66E47EC3BF0E552E0
:10332000E66EE66A660EE66E720E15D0170EE66E53
:1033300047EC3BF0E552E66EE66A630EE66E720E0F
:103340000AD01C0EE66E47EC3BF0E552E66EE66AEC
:10335000600EE66E720EE66EDBEC22F0E552E55290
:10336000E552E5520001060E0DD18BEC13F0000181
:10337000C329146E0A0E156E0E6E14C009F04FECC0
:103380003FF005C0C3F0050E0001055C0EE2280EFB
:10339000E66E740EE66E0D0EE66E010EE66E6AECDB
:1033A00030F0E552E552E552E55282EC20F000099A
:1033B00051E0010E00019325936F000E9421946F4C
:1033C000E83408E293510A08000E945503E2010E16
:1033D000936F946BD451030A30E0010A20E0030A92
:1033E00010E0010A37E193C0E6FF0E0EE66E2CEC0A
:1033F0003BF0E552E5520001996B9A6BAD6BAE6BF9
:1034000029D093C0E6FF130EE66E2CEC3BF0E5529C
:10341000E55200019B6B9C6BAF6BB06B1BD093C0F4
:10342000E6FF180EE66E2CEC3BF0E552E55200018B
:103430009D6B9E6BB16BB26B0DD093C0E6FF1D0E02
:10344000E66E2CEC3BF0E552E55200019F6BA06B61
:10345000B36BB46B9AEC20F0000951E00001010E4F
:10346000935F000E945B010E94AF02D0D89003D00E
:10347000935D000E945903E20A0E936F946BD4513E
:10348000030A30E0010A20E0030A10E0010A37E1F4
:1034900093C0E6FF0E0EE66E2CEC3BF0E552E552D3
:1034A0000001996B9A6BAD6BAE6B29D093C0E6FFB0
:1034B000130EE66E2CEC3BF0E552E55200019B6BDF
:1034C0009C6BAF6BB06B1BD093C0E6FF180EE66E23
:1034D0002CEC3BF0E552E55200019D6B9E6BB16B0D
:1034E000B26B0DD093C0E6FF1D0EE66E2CEC3BF0E8
:1034F000E552E55200019F6BA06BB36BB46B64ECBB
:1035000020F0000901E1ADD00001D451030A27E009
:10351000010A1AE0030A0DE0010A32E10E0EE66E1E
:1035200047EC3BF0E552E66EE66A5D0EE66E720E23
:1035300020D0130EE66E47EC3BF0E552E66EE66AED
:103540005A0EE66E720E15D0180EE66E47EC3BF082
:10355000E552E66EE66A570EE66E720E0AD01D0E52
:10356000E66E47EC3BF0E552E66EE66A540EE66E18
:10357000720EE66EDBEC22F0E552E552E552E552C2
:103580000001070ED06F12008BEC13F00001C3296D
:10359000146E0A0E156E0E6E14C009F04FEC3FF05B
:1035A00005C0C3F0050E0001055C0DE2280EE66EB5
:1035B000740EE66E0D0EE66EE66A6AEC30F0E552C9
:1035C000E552E552E55282EC20F000091CE0010EC4
:1035D00000019725976F000E9821986F640E0D6E6D
:1035E0000E6A97C008F098C009F06EEC3CF004C079
:1035F00097F005C098F004C0E6FF090EE66E2CECCB
:103600003BF0E552E5529AEC20F0000913E000018E
:10361000010E975F000E985B800E981503E0630E15
:10362000976F986B97C0E6FF090EE66E2CEC3BF0A7
:10363000E552E55264EC20F0000913E0090EE66E55
:1036400047EC3BF0E552E66EE66A510EE66E720E0E
:10365000E66EDBEC22F0E552E552E552E552000160
:10366000D06B12001E0EE66E47EC3BF0E5520001F7
:10367000A36FA46B1F0EE66E47EC3BF0E552000112
:10368000A16FA26B200EE66E47EC3BF0E552000105
:10369000A76FA86B210EE66E47EC3BF0E5520001E8
:1036A000A56FA66B220EE66E47EC3BF0E5520001DB
:1036B000A96FAA6B230EE66E47EC3BF0E5520001C2
:1036C000AB6FAC6B4C0EE66E720EE66EE66AE66AA7
:1036D0006AEC30F0E552E552E552E552A3C014F031
:1036E000A4C015F00A0E0D6E0E6AA3C008F0A4C0A7
:1036F00009F06EEC3CF008C014F009C015F0166A31
:10370000176A15AE02D01668176814C0E6FF15C018
:10371000E6FF16C0E6FF17C0E6FF040EE66EE66A97
:1037200029EC30F0186E060EE15E1850A3C014F0BC
:10373000A4C015F00A0E0D6E0E6AA3C008F0A4C056
:1037400009F06EEC3CF004C014F005C015F0166AE8
:10375000176A15AE02D01668176814C0E6FF15C0C8
:10376000E6FF16C0E6FF17C0E6FF050EE66EE66A46
:1037700029EC30F0186E060EE15E18506C0EE66E05
:10378000740EE66E060EE66EE66A6AEC30F0E552FE
:10379000E552E552E552A1C014F0A2C015F00A0EA0
:1037A0000D6E0E6AA1C008F0A2C009F06EEC3CF0EC
:1037B00008C014F009C015F0166A176A15AE02D0D9
:1037C0001668176814C0E6FF15C0E6FF16C0E6FFCE
:1037D00017C0E6FF070EE66EE66A29EC30F0186EB9
:1037E000060EE15E1850A1C014F0A2C015F00A0E3A
:1037F0000D6E0E6AA1C008F0A2C009F06EEC3CF09C
:1038000004C014F005C015F0166A176A15AE02D090
:103810001668176814C0E6FF15C0E6FF16C0E6FF7D
:1038200017C0E6FF080EE66EE66A29EC30F0186E67
:10383000060EE15E18506E0EE66E740EE66E090E10
:10384000E66EE66A6AEC30F0E552E552E552E55282
:10385000ABC014F0ACC015F00A0E0D6E0E6AABC012
:1038600008F0ACC009F06EEC3CF008C014F009C0E0
:1038700015F0166A176A15AE02D01668176814C0DC
:10388000E6FF15C0E6FF16C0E6FF17C0E6FF0A0E0A
:10389000E66EE66A29EC30F0186E060EE15E18500E
:1038A000ABC014F0ACC015F00A0E0D6E0E6AABC0C2
:1038B00008F0ACC009F06EEC3CF004C014F005C098
:1038C00015F0166A176A15AE02D01668176814C08C
:1038D000E6FF15C0E6FF16C0E6FF17C0E6FF0B0EB9
:1038E000E66EE66A29EC30F0186E060EE15E1850BE
:1038F000960EE66E720EE66E0C0EE66EE66A6AECE8
:1039000030F0E552E552E552E552470EE66E720E92
:10391000E66EE66A010EE66E6AEC30F0E552E552BC
:10392000E552E552A7C014F0A8C015F00A0E0D6EBE
:103930000E6AA7C008F0A8C009F06EEC3CF008C001
:1039400014F009C015F0166A176A15AE02D0166891
:10395000176814C0E6FF15C0E6FF16C0E6FF17C0E3
:10396000E6FF040EE66E010EE66E29EC30F0186EEE
:10397000060EE15E1850A7C014F0A8C015F00A0E9C
:103980000D6E0E6AA7C008F0A8C009F06EEC3CF0FE
:1039900004C014F005C015F0166A176A15AE02D0FF
:1039A0001668176814C0E6FF15C0E6FF16C0E6FFEC
:1039B00017C0E6FF050EE66E010EE66E29EC30F04C
:1039C000186E060EE15E18506C0EE66E740EE66E12
:1039D000060EE66E010EE66E6AEC30F0E552E55238
:1039E000E552E552A5C014F0A6C015F00A0E0D6E02
:1039F0000E6AA5C008F0A6C009F06EEC3CF008C045
:103A000014F009C015F0166A176A15AE02D01668D0
:103A1000176814C0E6FF15C0E6FF16C0E6FF17C022
:103A2000E6FF070EE66E010EE66E29EC30F0186E2A
:103A3000060EE15E1850A5C014F0A6C015F00A0EDF
:103A40000D6E0E6AA5C008F0A6C009F06EEC3CF041
:103A500004C014F005C015F0166A176A15AE02D03E
:103A60001668176814C0E6FF15C0E6FF16C0E6FF2B
:103A700017C0E6FF080EE66E010EE66E29EC30F088
:103A8000186E060EE15E1850420EE66E720EE66E7D
:103A9000090EE66E010EE66E6AEC30F0E552E55274
:103AA000E552E552A9C014F0AAC015F00A0E0D6E39
:103AB0000E6AA9C008F0AAC009F06EEC3CF008C07C
:103AC00014F009C015F0166A176A15AE02D0166810
:103AD000176814C0E6FF15C0E6FF16C0E6FF17C062
:103AE000E6FF0D0EE66E010EE66E29EC30F0186E64
:103AF000060EE15E1850A9C014F0AAC015F00A0E17
:103B00000D6E0E6AA9C008F0AAC009F06EEC3CF078
:103B100004C014F005C015F0166A176A15AE02D07D
:103B20001668176814C0E6FF15C0E6FF16C0E6FF6A
:103B300017C0E6FF0E0EE66E010EE66E29EC30F0C1
:103B4000186E060EE15E18502B0EE66E740EE66ED1
:103B50000F0EE66E010EE66E6AEC30F0E552E552AD
:103B6000E552E55212000001D251060A01E132D2BB
:103B7000030A01E1C2D1010A01E154D1070A01E1BE
:103B8000E6D0010A01E178D0030A0BE0010A01E066
:103B9000120068DD99DA000901E186D20001010E08
:103BA00017D260DD0001C329146E0A0E156E0E6E69
:103BB00014C009F04FEC3FF005C0C3F0050E000142
:103BC000055C0DE2280EE66E740EE66E040EE66EDF
:103BD000E66A6AEC30F0E552E552E552E55292DAD7
:103BE00000091CE0010E0001A325A36F000EA42113
:103BF000A46F180E0D6E0E6AA3C008F0A4C009F0E1
:103C00006EEC3CF004C0A3F005C0A4F004C0E6FFD5
:103C10001E0EE66E2CEC3BF0E552E5528BDA000905
:103C200013E00001010EA35F000EA45B800EA4153B
:103C300003E0170EA36FA46BA3C0E6FF1E0EE66E93
:103C40002CEC3BF0E552E5523FDA000901E12CD2C1
:103C50001E0EE66E47EC3BF0E552E66EE66A3F0E5E
:103C6000E66E720EE66EDBEC22F0E552E552E552AE
:103C7000E5520001020EACD1F5DC0001C329146E3F
:103C80000A0E156E0E6E14C009F04FEC3FF005C021
:103C9000C3F0050E0001055C0DE2280EE66E740E01
:103CA000E66E070EE66EE66A6AEC30F0E552E55223
:103CB000E552E55227DA00091CE0010E0001A125BA
:103CC000A16F000EA221A26F3C0E0D6E0E6AA1C064
:103CD00008F0A2C009F06EEC3CF004C0A1F005C0F1
:103CE000A2F004C0E6FF1F0EE66E2CEC3BF0E5529E
:103CF000E55220DA000913E00001010EA15F000E79
:103D0000A25B800EA21503E03B0EA16FA26BA1C0C7
:103D1000E6FF1F0EE66E2CEC3BF0E552E552D4D9DF
:103D2000000901E1C1D11F0EE66E47EC3BF0E55200
:103D3000E66EE66A3C0EE66E720EE66EDBEC22F094
:103D4000E552E552E552E5520001030E41D18ADC0D
:103D50000001C329146E0A0E156E0E6E14C009F010
:103D60004FEC3FF005C0C3F0050E0001055C0EE20C
:103D7000280EE66E740EE66E040EE66E010EE66E1A
:103D80006AEC30F0E552E552E552E552BBD9000944
:103D90001CE0010E0001A725A76F000EA821A86F47
:103DA000180E0D6E0E6AA7C008F0A8C009F06EECE0
:103DB0003CF004C0A7F005C0A8F004C0E6FF200E48
:103DC000E66E2CEC3BF0E552E552B4D9000913E065
:103DD0000001010EA75F000EA85B800EA81503E08E
:103DE000170EA76FA86BA7C0E6FF200EE66E2CEC9F
:103DF0003BF0E552E55268D9000901E155D1200EAA
:103E0000E66E47EC3BF0E552E66EE66A390EE66E8A
:103E1000720EE66ED0DBE552E552E552E552000146
:103E2000040ED6D01FDC0001C329146E0A0E156ED5
:103E30000E6E14C009F04FEC3FF005C0C3F0050E44
:103E40000001055C0EE2280EE66E740EE66E070EAB
:103E5000E66E010EE66E6AEC30F0E552E552E55290
:103E6000E55250D900091CE0010E0001A525A56FFF
:103E7000000EA621A66F3C0E0D6E0E6AA5C008F0BE
:103E8000A6C009F06EEC3CF004C0A5F005C0A6F099
:103E900004C0E6FF210EE66E2CEC3BF0E552E55245
:103EA00049D9000913E00001010EA55F000EA65BD1
:103EB000800EA61503E03B0EA56FA66BA5C0E6FF1E
:103EC000210EE66E2CEC3BF0E552E552FDD80009E0
:103ED00001E1EAD0210EE66E47EC3BF0E552E66EDA
:103EE000E66A360EE66E720EE66E65DBE552E55268
:103EF000E552E5520001050E6BD032EC1BF00001DB
:103F0000C329146E0A0E156E0E6E14C009F04FEC24
:103F10003FF005C0C3F0050E0001055C0EE2280E5F
:103F2000E66E740EE66E0D0EE66E010EE66E6AEC3F
:103F300030F0E552E552E552E552E4D800091CE0C4
:103F4000010E0001A925A96F000EAA21AA6F640E17
:103F50000D6E0E6AA9C008F0AAC009F06EEC3CF024
:103F600004C0A9F005C0AAF004C0E6FF220EE66E68
:103F70002CEC3BF0E552E552DDD8000913E00001DE
:103F8000010EA95F000EAA5B800EAA1503E0630E66
:103F9000A96FAA6BA9C0E6FF220EE66E2CEC3BF0DF
:103FA000E552E55291D8000901E17ED0220EE66E7D
:103FB00047EC3BF0E552E66EE66A330EE66E720EB3
:103FC000E66EF9DAE552E552E552E5520001060ED9
:103FD000D26F120032EC1BF00001C329146E0A0EDE
:103FE000156E0E6E14C009F04FEC3FF005C0C3F023
:103FF000050E0001055C0DE2280EE66E740EE66EFD
:104000000A0EE66EE66A6AEC30F0E552E552E552D9
:10401000E55278D800091CE0010E0001AB25AB6F1A
:10402000000EAC21AC6F3C0E0D6E0E6AABC008F0FA
:10403000ACC009F06EEC3CF004C0ABF005C0ACF0D5
:1040400004C0E6FF230EE66E2CEC3BF0E552E55291
:1040500071D8000913E00001010EAB5F000EAC5BEC
:10406000800EAC1503E03B0EAB6FAC6BABC0E6FF54
:10407000230EE66E2CEC3BF0E552E55225D8000904
:1040800013E0230EE66E47EC3BF0E552E66EE66A7F
:10409000300EE66E720EE66E8EDAE552E552E552AD
:1040A000E5520001D26B120012000001C0350BE294
:1040B000BF510008000EC05506E2D76BD86BBF0792
:1040C000000EC05B010C000C0001BE350BE2BD51BF
:1040D0000008000EBE5506E2D76BD86BBD07000E78
:1040E000BE5B010C000C0001C2350BE2C15100089F
:1040F000000EC25506E2D76BD86BC107000EC25B3B
:10410000010C000C0F01010E081901E109510DE02D
:104110000A0E085D000E09590CE308CF14F0156A69
:10412000010E14161450151004E10001D76BD86B62
:10413000010C000C0F01010E0C1901E10D510DE0F5
:104140000A0E0C5D000E0D590CE30CCF14F0156A2D
:10415000010E14161450151004E10001D76BD86B32
:10416000010C000C0F01010E0A1905E10B5103E1CE
:104170000001010EB96F0001B9051EE1BB2BBB5157
:104180000F0807E2B96BBC6BBA6BBB6BC12B000E9F
:10419000C2230F010A510B110FE10001010EBC6F88
:1041A000BB6BBA2BBA51050807E2B96BBC6BBA6B93
:1041B000BB6BBD2B000EBE230001BC050EE10F0141
:1041C000010E0A190AE10B5108E10001B96BBC6B41
:1041D000BA6BBB6BBF2B000EC0231200010EE66E44
:1041E000CEEC3DF0E552F3CF5FFFF4CF60FFF3CFAD
:1041F00006F0F4CF07F0FF0ED8800656030E0756E0
:10420000086A096A640E0B6E0C6A0D6A0E6A4FEC3E
:104210003EF002C006F003C007F004C008F005C07D
:1042200009F00B68030E0C6E0D6A0E6AC1EC3CF0CF
:1042300006C061FF07C062FF12000001D52B000E0F
:10424000D623E00ED55D2E0ED65959E3D56BD66B2D
:104250002C0EE66E720EE66E1AEC34F0E552E55264
:1042600061CF14F062CF15F00A0E0D6E0E6A61CFA9
:1042700008F062CF09F06EEC3CF008C014F009C001
:1042800015F0166A176A15AE02D01668176814C0C2
:10429000E6FF15C0E6FF16C0E6FF17C0E6FFB1EC6B
:1042A00034F0E552E552E552E55261CF14F062CFA9
:1042B00015F00A0E0D6E0E6A61CF08F062CF09F09C
:1042C0006EEC3CF004C014F005C015F0166A176AD5
:1042D00015AE02D01668176814C0E6FF15C0E6FFD9
:1042E00016C0E6FF17C0E6FFB1EC34F0E552E55228
:1042F000E552E552230EE66EECEC33F0E552120087
:10430000B7C014F0B8C015F0280E0D6E0E6AB7C015
:1043100008F0B8C009F0FBEC3EF004C014F005C092
:1043200015F0260ED8800454000E05542DE3B7C0B6
:1043300016F0B8C017F0280E0D6E0E6AB7C008F060
:10434000B8C009F0FBEC3EF004C016F005C017F051
:10435000220ED8800454000E055419E2B7C018F09C
:10436000B8C019F0280E0D6E0E6AB7C008F0B8C0BC
:1043700009F0FBEC3EF004C018F005C019F0250E62
:10438000045C000E055803E2100E801002D0EB0E04
:104390008014806E1200D9CFE6FFE1CFD9FF020E64
:1043A000E126DE6ADD6A0F01010E581901E0F9D03D
:1043B000595101E0F6D0586B596B300E0F014C5D2E
:1043C000166E176A300E4B5D0A0DF3501624146EEC
:1043D000F4501720156E14C0DEFFDD6E4951320A0D
:1043E00001E1C2D0030A3FE0010A01E0DAD04A51FC
:1043F000460A35E0030A25E0010A1FE0070A19E032
:10440000010A13E0030A0DE0780A07E0010A01E05F
:10441000C8D0DFCFE6FF080EBFD0DFCFE6FF090E22
:10442000BBD0DFCFE6FF0A0EB7D0DFCFE6FF0B0E23
:10443000B3D0DFCFE6FF0C0EAFD0DFCFE6FF0D0E1F
:10444000ABD0DFCFE6FF0E0EE66E2CEC3BF0E55274
:10445000E5520001996B9A6BAD6BAE6BA2D0DFCFCA
:10446000E6FF0F0E99D04A51460A01E179D0030ABE
:1044700073E0010A63E0070A5DE0010A57E0030AFE
:1044800051E0780A4BE0010A3BE00F0A35E0010AEF
:104490002FE0030A29E0010A23E0070A13E0010ADA
:1044A0000DE0030A07E0010A01E07BD0DFCFE6FF61
:1044B000100E72D0DFCFE6FF110E6ED0DFCFE6FF19
:1044C000120E6AD0DFCFE6FF130EE66E2CEC3BF047
:1044D000E552E55200019B6B9C6BAF6BB06B61D0FA
:1044E000DFCFE6FF140E58D0DFCFE6FF150E54D015
:1044F000DFCFE6FF160E50D0DFCFE6FF170E4CD011
:10450000DFCFE6FF180EE66E2CEC3BF0E552E552ED
:1045100000019D6B9E6BB16BB26B43D0DFCFE6FFAA
:10452000190E3AD0DFCFE6FF1A0E36D0DFCFE6FF06
:104530001B0E32D0DFCFE6FF1C0E2ED0DFCFE6FF02
:104540001D0EE66E2CEC3BF0E552E55200019F6B30
:10455000A06BB36BB46B25D0DFCFE6FF1E0E1CD073
:10456000DFCFE6FF1F0E18D04A51330A12E0010ACE
:104570000CE0030A06E0010A14E1DFCFE6FF200E9B
:104580000BD0DFCFE6FF210E07D0DFCFE6FF220EF4
:1045900003D0DFCFE6FF230EE66E2CEC3BF0E552B6
:1045A000E552020EE15C02E2E16AE552E16EE5529B
:1045B000E7CFD9FF1200D9CFE6FFE1CFD9FF210E17
:1045C000E66EECEC33F0E552FD0EDBCFE6FFFE0EBF
:1045D000DBCFE6FF1AEC34F0E552E552FB0EDBCF01
:1045E00014F0FC0EDBCF15F00A0E0D6E0E6A14C02F
:1045F00008F015C009F06EEC3CF008C014F009C0DA
:1046000015F0166A176A15AE02D01668176814C03E
:10461000E6FF15C0E6FF16C0E6FF17C0E6FFB1ECE7
:1046200034F0E552E552E552E552FB0EDBCF14F0D3
:10463000FC0EDBCF15F00A0E0D6E0E6A14C008F0EA
:1046400015C009F06EEC3CF004C014F005C015F084
:10465000166A176A15AE02D01668176814C0E6FF0E
:1046600015C0E6FF16C0E6FF17C0E6FFB1EC34F058
:10467000E552E552E552E552230EE66EECEC33F0DE
:10468000E552E552E7CFD9FF1200080EE66E47EC7F
:104690003BF0E552E66EE66A1C0EE66E740EE66EC0
:1046A0008ADFE552E552E552E552090EE66E47EC27
:1046B0003BF0E552E66EE66A510EE66E720EE66E6D
:1046C0007ADFE552E552E552E5520A0EE66E47EC16
:1046D0003BF0E552E66EE66A810EE66E720EE66E1D
:1046E0006ADFE552E552E552E5520B0EE66E47EC05
:1046F0003BF0E552E66EE66A750EE66E720EE66E09
:104700005ADFE552E552E552E5520C0EE66E47ECF3
:104710003BF0E552E66EE66A8D0EE66E720EE66ED0
:104720004ADFE552E552E552E5520D0EE66E47ECE2
:104730003BF0E552E66EE66A690EE66E720EE66ED4
:104740003ADFE552E552E552E5520E0EE66E47ECD1
:104750003BF0E552E66EE66A5D0EE66E720EE66EC0
:104760002ADFE552E552E552E5520F0EE66E47ECC0
:104770003BF0E552E66EE66A7E0EE66E720EE66E7F
:104780001ADFE552E552E552E552100EE66E47ECAF
:104790003BF0E552E66EE66A720EE66E720EE66E6B
:1047A0000ADFE552E552E552E552110EE66E47EC9E
:1047B0003BF0E552E66EE66A8A0EE66E720EE66E33
:1047C000FADEE552E552E552E552120EE66E47EC8E
:1047D0003BF0E552E66EE66A660EE66E720EE66E37
:1047E000EADEE552E552E552E552130EE66E47EC7D
:1047F0003BF0E552E66EE66A5A0EE66E720EE66E23
:10480000DADEE552E552E552E552140EE66E47EC6B
:104810003BF0E552E66EE66A7B0EE66E720EE66EE1
:10482000CADEE552E552E552E552150EE66E47EC5A
:104830003BF0E552E66EE66A6F0EE66E720EE66ECD
:10484000BADEE552E552E552E552160EE66E47EC49
:104850003BF0E552E66EE66A870EE66E720EE66E95
:10486000AADEE552E552E552E552170EE66E47EC38
:104870003BF0E552E66EE66A630EE66E720EE66E99
:104880009ADEE552E552E552E552180EE66E47EC27
:104890003BF0E552E66EE66A570EE66E720EE66E85
:1048A0008ADEE552E552E552E552190EE66E47EC16
:1048B0003BF0E552E66EE66A780EE66E720EE66E44
:1048C0007ADEE552E552E552E5521A0EE66E47EC05
:1048D0003BF0E552E66EE66A6C0EE66E720EE66E30
:1048E0006ADEE552E552E552E5521B0EE66E47ECF4
:1048F0003BF0E552E66EE66A840EE66E720EE66EF8
:104900005ADEE552E552E552E5521C0EE66E47ECE2
:104910003BF0E552E66EE66A600EE66E720EE66EFB
:104920004ADEE552E552E552E5521D0EE66E47ECD1
:104930003BF0E552E66EE66A540EE66E720EE66EE7
:104940003ADEE552E552E552E5521E0EE66E47ECC0
:104950003BF0E552E66EE66A3F0EE66E720EE66EDC
:104960002ADEE552E552E552E5521F0EE66E47ECAF
:104970003BF0E552E66EE66A3C0EE66E720EE66EBF
:104980001ADEE552E552E552E552200EE66E47EC9E
:104990003BF0E552E66EE66A390EE66E720EE66EA2
:1049A0000ADEE552E552E552E552210EE66E47EC8D
:1049B0003BF0E552E66EE66A360EE66E720EE66E85
:1049C000FADDE552E552E552E552220EE66E47EC7D
:1049D0003BF0E552E66EE66A330EE66E720EE66E68
:1049E000EADDE552E552E552E552230EE66E47EC6C
:1049F0003BF0E552E66EE66A300EE66E720EE66E4B
:104A0000DADDE552E552E552E5523C0EE66E47EC42
:104A10003BF0E552E66EE66AB50EE66E720EE66EA5
:104A2000CADDE552E552E552E5523D0EE66E47EC31
:104A30003BF0E552E66EE66AB20EE66E720EE66E88
:104A4000BADDE552E552E552E5523E0EE66E47EC20
:104A50003BF0E552E66EE66AAF0EE66E720EE66E6B
:104A6000AADDE552E552E552E5523F0EE66E47EC0F
:104A70003BF0E552E66EE66AAC0EE66E720EE66E4E
:0C4A80009ADDE552E552E552E5521200C5
:044A8C0082EC2AF09E
:104A9000FB0EDBCFF3FFDB06F35000090AE0D0EC9E
:104AA0002AF0FA0E3BEC2BF0F3E1151CF1E1010EBC
:104AB00001D0000EB1EF2AF082EC2AF03B0EE12487
:104AC00002E3E168E652E16E010EDB6A020EDB6A88
:104AD000F90EDBCFF6FFFA0EDBCFF7FFFB0EDBCFD5
:104AE000F8FF0800F550DF6EDF5002E1D5EF29F046
:104AF000250EDF5C02E0C8EF29F0030EDB6A040E2E
:104B0000DB6A050EDB6A060EDB6A070EDB6AEAEC7F
:104B100029F02D0EDF5C0CE02B0EDF5C09E0200E8F
:104B2000DF5C06E0230EDF5C03E0300EDF5C1AE1A1
:104B3000DF50300A14E0130A0FE0030A0AE00B0A00
:104B400005E0060AE4E1030EDB80E1D7030EDB8219
:104B5000DED7030EDB84DBD7030EDB86D8D7030E4C
:104B6000DB88D5D72A0EDF5C1BE1E6EC29F034ECBC
:104B70002AF010E0030EDB8008680968130EDBCF13
:104B80000DF0140EDBCF0EF0F5EC3CF0040E06C079
:104B9000DBFF03D0130E1DEC2AF0EAEC29F00BD05A
:104BA000090EDB6A8BEC2AF003E0FFEC2AF0FAD75F
:104BB000090E1DEC2AF0030EDBB0DB982E0EDF5C35
:104BC0001BE1EAEC29F02A0EDF5C0BE1E6EC29F0B0
:104BD00034EC2AF003E1130E6FEC2AF0EAEC29F032
:104BE0000BD0090EDB6A8BEC2AF003E0FFEC2AF015
:104BF000FAD7090E6FEC2AF0680EDF5C07E1EAECE9
:104C000029F0680EDF5C1DE1030E18D0740EDF5C26
:104C100017E07A0EDF5C14E0480EDF5C06E0540E0D
:104C2000DF5C03E05A0EDF5C02E1020E07D06C0E7F
:104C3000DF5C03E06A0EDF5C04E1010EC2EC2AF0E7
:104C4000C9DBDF506E0A01E17FD31E0A01E192D178
:104C5000200A01E18FD13F0A01E149D11A0A01E19D
:104C600046D10D0A01E143D1200A01E140D13A0ABF
:104C700001E13DD1200A01E13AD1260A01E135D115
:104C80000D0A01E132D11A0A01E1D9D0200A4AE025
:104C9000300A1FE0460A0EE0250A01E083D3D9500E
:104CA000F90FE96EFF0EDA20EA6E010EEE5E000EDD
:104CB000EE5AEE5AD0EC2AF0250EE66E95DB03E1B3
:104CC000151C01E169D3CCEC2AF001E26BD3DB2A9D
:104CD00069D3080EDB6A040EDB50010806E2040EFD
:104CE000DB0494EC2AF0DB508BDB080EDB5009E090
:104CF000030EDB50010B05E172DB01E04DD3080E22
:104D0000DB6A64DBEFCFDFFF44EC2BF003E1151C23
:104D100001E142D3CCEC2AF001E3DB2A60DB01E1C4
:104D200041D33AD3070EDB5002080FE110EC2BF011
:104D3000030ED7EC2AF00E0EEECFDBFF0F0EEECFF8
:104D4000DBFF100EEECFDBFF20D0F70EDBCF17F02E
:104D5000F80EDBCF18F0020E175E000E185AF70E91
:104D600017C0DBFFF80E18C0DBFF17C0E9FF18C043
:104D7000EAFFC7EC2AF0166A0E0E14C0DBFF0F0E16
:104D800015C0DBFF100E16C0DBFF0E0EDBCFE6FFFB
:104D90000F0EDBCFE6FF100EDBCFE6FF95EC3EF00B
:104DA000E552E552E552130E07C0DBFF140E08C0B2
:104DB000DBFF060EDB5005E0130E0BEC2BF001E2DF
:104DC0006ADB2FEC2BF002E2130E37DBF2EC2AF059
:104DD00006E0040E0BEC2BF002E2050E2EDB030EB8
:104DE000DBB005D0FCDA01E0D7D2080EDB6A090E91
:104DF000DB6A0E0EDBCFF6FF0F0EDBCFF7FF100ED8
:104E0000DBCFF8FF0800F550DF6EDF5014E035EC23
:104E10002BF011E244EC2BF003E1151C01E1BCD2B4
:104E2000BBDB01E3DB2A090EDB2AD9500E0FE96E4A
:104E3000000ECBDBE7D7D3DA01E1B4D2ADD2C6DACC
:104E4000110EEECFDBFF120EEDCFDBFF110EDBCF2D
:104E5000E6FF120EDBCFE6FF87EC3EF0E552E552AF
:104E6000130EF3CFDBFF140EF4CFDBFF060EDB5087
:104E700004E0130ED0DB01E20EDB2FEC2BF002E29C
:104E8000130EDBDAAFDB05E0040EC5DB02E2050E34
:104E9000D4DA030EDBB005D0A2DA01E07DD2080E31
:104EA000DB6A090EDB6A110EDBCFE9FF120EDBCFE6
:104EB000EAFFEFCFDFFFDF5014E0D7DB12E2E4DBE5
:104EC00003E1151C01E168D267DB01E3DB2A090E6F
:104ED000DB2A110EDB2ADBCFE9FF120EE8E3DB2A27
:104EE000E6D77DDA01E15ED257D2030EDB8E070EE4
:104EF000DB0410E195DB040E5ADB0A0EEECFDBFF7C
:104F00000B0EEECFDBFF0C0EEECFDBFF0D0EEECF68
:104F1000DBFF6CD0070EDB5003082CE1030EDBAE89
:104F20000DD0B2DA020E76DAEFCF14F0156A166AF7
:104F3000176A14AE39D01568166835D0F70EDBCF76
:104F400015F0F80EDBCF16F0020E155E000E165AA5
:104F5000F70E15C0DBFFF80E16C0DBFF15C0E9FF2A
:104F600016C0EAFFEFCF14F00A0E14C0DBFF0B0EE1
:104F7000DB6A38D0070EDB50020809E1030EDBAE16
:104F800004D059DB16AE10D00ED055DB0DD0030E79
:104F9000DBAE12D079DA020E3DDAF9DA166A176A58
:104FA00015AE02D016681768E2DA0C0E16C0DBFFE9
:104FB0000D0E17C0DBFF1AD0F70EDBCF16F0F80E80
:104FC000DBCF17F0020E165E000E175AF70E16C052
:104FD000DBFFF80E17C0DBFF16C0E9FF17C0EAFFC2
:104FE000D6DAC5DA0C0EDB6A0D0EDB6A060EDB5074
:104FF00005E1010EF36E050EF3CFDBFF150EDB6A44
:10500000160EDB6AD950370F146E000EDA20156EBB
:10501000390E14C0DBFF3A0E15C0DBFF380EDB6A19
:10502000080EDB6A0A0EAEDADF50780A12E0200AB8
:1050300010E0280A0CE0200A0AE03F0A06E00D0A08
:1050400002E0200A08E1020E05D0080E03D0080E87
:10505000DF26100E97DA030EDBBE02D0DB92DB9464
:10506000DB50800B24E08ADAD890030EEB50000A64
:1050700008E6000EEE5C000EEE58000EEE58000E34
:10508000EE5815E213DA0B680C680D680E684FECE9
:105090003EF00A0E02C0DBFF0B0E03C0DBFF0C0E5E
:1050A00004C0DBFF0D0E05C0DBFF2D0E08D0030E84
:1050B000DBA202D02B0E03D0DBA408D0200EF36EAF
:1050C000170EF3CFDBFF150EDB2A02D0170EDB6ABB
:1050D000050EDB5003E1B7D901E189D0BA0E146E99
:1050E0007E0E156E000E166E070EDBCF17F0186AD7
:1050F000196A1A6A17C00BF018C00CF019C00DF02D
:105100001AC00EF0D3D9BAEC3EF014500224F36E5C
:1051100015500320F46E16500420F86EF4CFF7FFFC
:10512000F3CFF6FF0800090EF5CFDBFF580EDF5C6A
:105130000FE1610EF36E090E7BD90AE3200E146EA7
:10514000090EDBCFE7FF1450E75E090EE7CFDBFF68
:10515000070EDBCF14F0156A166A176A0FDA14C04F
:105160000BF015C00CF016C00DF017C00EF0EECF0E
:1051700006F0EECF07F0EECF08F0EFCF09F0BAEC73
:105180003EF009C0EDFF08C0EDFF07C0EDFF06C00F
:10519000EFFF390EDBCFE9FFDB063A0EDBCFEAFF8C
:1051A00001E2DB06090EDBCFEFFF150EDB2A4BD940
:1051B00095E1030EDBA61DD06F0EDF5C06E1C1D9C1
:1051C00018E3150EDB285BDA14D0780EDF5C09E0FB
:1051D000580EDF5C06E0620EDF5C03E0420EDF5C2F
:1051E00008E1020EF36E160EF3CFDBFF02D0150EB0
:1051F000DB6A030EDB50100B0EE0040EDBCF14F065
:10520000050EDB50D880145406E2060EDB5003E195
:10521000040EDB5034DA95D90AE2050EDBCFE7FF46
:10522000150EDB50E75E050EE7CFDBFF02D0050E63
:10523000DB6A040EDBCF14F0160E45D9D880145467
:1052400014E2160EDBCFE6FF150EDBCFE6FF040EF1
:10525000DBCFE6FF050EDB50E552E75CE552D88078
:10526000E754E552D880E7545FD9030EDB50010BB9
:105270000BE1080EDB5008E0B2D801E08DD0080E3B
:10528000DB50BED8080EDB6A170EDB5007E088D96A
:10529000170EF1D903E1151C01E17ED0160EDB508B
:1052A00016E07ED9300EE66E9FD802E1151C74E040
:1052B00077D9DFCFE6FF0DEC3EF0E552E552E5523F
:1052C000F4CF15F00001F31C02E1151C65E0050E9A
:1052D000DBCF14F0160EDB50D880145409E2050E13
:1052E000DBCFE7FF160EDB50E75E050EE7CFDBFFF7
:1052F000300EE66E050ECBD94FE1390EDB2ADBCF3F
:10530000E9FF3A0E01E3DB2ADBCFEAFF090EEFCF1C
:10531000DBFFDB500EE044D9090EADD902E1151CCC
:105320003BE0390EDB2ADBCFE9FF3A0EEDE3DB2A67
:10533000EBD755D831E1160EDBCFE6FF080EC3D808
:10534000E552E7245DD82ED0070EDB50030A1CE09F
:10535000010A14E0030A07E07BD9DBCFEEFF020E5F
:10536000DBCFEDFF1FD0F5D8196A17AE02D0186851
:1053700019682CD8BCD819C0EEFF14D0EAD817BED3
:10538000186824D8B4D80ED063D9DBCFEFFF0AD089
:105390007BD905E1151C03E1F368F46810D0FCD853
:1053A00001E3DB2A79D971EF25F0010EDBCF14F090
:1053B000020EDBCF15F014C0F3FF15C0F4FF3B0E57
:1053C000E15C02E2E16AE552E16ECBD029D9020E3E
:1053D000D7EF2AF061D90800F550DF6E1200200ED9
:1053E000E66E080E47EF2BF00DEC3EF0E552E5526D
:1053F000E552F3CF14F0F4CF15F00001F31C1200C6
:10540000146E156AD950010F4DD91450EE2615505F
:10541000ED221200185E000E195AF70E18C0DBFFBD
:10542000F80E19C0DBFF18C0E9FF19C0EAFF12002F
:10543000DBCFF4FFF350F45C1200DB50E76E040E98
:10544000E7CFDBFF12000A0EDBCF14F00B0EDBCF31
:1054500015F00C0EDBCF16F00D0EDBCF17F014504D
:105460001510161017101200130EEECFDBFF140EDE
:10547000EDCFDBFF130EDBCF14F0140EDBCF15F0F6
:105480000001800E15141200F70EDBCF18F0F80E95
:10549000DBCF19F01200050EDB50E66ED950130F6A
:1054A00001D9E552E750EE6EED6A12000A0EDBCF2D
:1054B00006F00B0EDBCF07F00C0EDBCF08F00D0E65
:1054C000DBCF09F01200DBCFE6FF150EDBCFE6FFE6
:1054D000050EDB50E552E724E552E7241200DB50CD
:1054E000CED8010EF36E060EF3CFDBFF1200EE50A6
:1054F000EFCFEAFFE96E16C0EEFF17C0EEFF18C04F
:10550000EEFF1200D9CFE6FFDACFE6FFE1CFD9FFF9
:10551000E2CFDAFF1200DFCFE6FFE66A11EC3FF0E0
:10552000E552E552F3501200E76E080EE7CFDBFFBD
:105530001200EECF14F0EECF15F0EFCF16F0176A91
:105540001200050EDBCF14F0150EDB50D88014547A
:105550001200010EDBCF16F0020EDBCF17F0186A37
:105560001200E552E5CFDAFFE7CFD9FF12000A0EAD
:1055700014C0DBFF0B0E15C0DBFF1200D9500A0F61
:1055800052EF2BF0F36E070EF3CFDBFF1200EECFDE
:1055900014F0EFCF15F01200010EDB2A020E1200FC
:1055A000FC0EDBCFE6FFFD0EDBCFE6FF1200145E44
:1055B000000E155AF70E14C0DBFFF80E15C0DBFF06
:1055C00014C0E9FF15C0EAFF1200DA20EA6EEF2AE4
:1055D000EECFF6FF000EEF22EECFF7FFEF22EECF79
:1055E000F8FF1200040EDBCFE6FF130EDB50E5528E
:1055F000E75C9ADFDB5004DF060EDB501200090E79
:10560000DB500A0DF350DF24D00FE76E090EE7CF11
:10561000DBFFEAEF29F0DB50F36E050E18EF2AF0FE
:10562000F70EDBCF14F0F80EDBCF15F01200DFCF52
:10563000E6FFF4EF29F028DF030EECDE99EF2AF005
:1056400046EC25F0E552E552E552E552000912001C
:10565000BDDEEE50EFCFEAFFE96E010E1200130E31
:10566000DB50F36E040E18EF2AF0040EDB50F36EDD
:10567000090E18EF2AF0DBCFE6FFF4EF29F0E76E12
:10568000050EE7CFDBFF12008BDF17EF2BF0DBCF30
:10569000E6FF86DF20EF2BF0D950F90FE96EFF0E01
:0E56A000E5EF2AF0E96E000EDA20EA6E120045
:0256AE00D9CF52
:1056B000E6FFE1CFD9FF040EE126DE6ADD6ADECF28
:1056C00014F0DDCF15F0FE0EDB50000115AE02D058
:1056D000D89003D0145C000E15581DE2020EDB6A50
:1056E000030EDB6A020EDBCF14F0030EDBCF15F0E6
:1056F000D890155004E6010E145C000E155806E211
:10570000020EDB2A030EEEE3DB2AECD7DF2A010EC2
:10571000D6E3DB2AD4D7040EE15C02E2E16AE5526B
:10572000E16EE552E7CFD9FF1200D9CFE6FFE1CF16
:10573000D9FF040EE126DE6ADD6ADECF14F0DDCF8C
:1057400015F0166A176A15AE02D016681768D95098
:10575000FB0FE96EFF0EDA20EA6EEE50145CEE509D
:105760001558EE501658EE5017581DE2020EDB6A1F
:10577000030EDB6A020EDBCF14F0030EDBCF15F055
:10578000D890155004E6A00E145C000E155806E2E1
:10579000020EDB2A030EEEE3DB2AECD7DF2A010E32
:1057A000CCE3DB2ACAD7040EE15C02E2E16AE552EF
:1057B000E16EE552E7CFD9FF1200D9CFE6FFE1CF86
:1057C000D9FF0F0E8116FE0EDB50F00B8112818681
:1057D000010EE66EE66AE66AE66AA7DFE552E55282
:1057E000E552E5528196010EE66EE66AE66AE66AE1
:1057F0009CDFE552E552E552E5520F0E8116FE0E92
:10580000DB38F00B81128186010EE66EE66AE66AED
:10581000E66A8BDFE552E552E552E5528196010ECC
:10582000E66EE66AE66AE66A80DFE552E552E55230
:10583000E552E552E7CFD9FF1200D9CFE6FFE1CF1D
:10584000D9FFE652030E9316190EE66EE66AE66A73
:10585000E66A6BDFE552E552E552E5520F0E81161E
:10586000F80E81160F0E8116300E81128186010E00
:10587000E66EE66AE66AE66A58DFE552E552E55208
:10588000E5528196010EE66EE66AE66AE66A4DDF4B
:10589000E552E552E552E5520F0E8116300E8112A7
:1058A0008186010EE66EE66AE66AE66A3EDFE5524A
:1058B000E552E552E5528196010EE66EE66AE66A29
:1058C000E66A33DFE552E552E552E5520F0E8116E6
:1058D000300E81128186010EE66EE66AE66AE66A9D
:1058E00024DFE552E552E552E5528196010EE66E5F
:1058F000E66AE66AE66A19DFE552E552E552E552E4
:105900000F0E8116818A8186010EE66EE66AE66ACE
:10591000E66A0BDFE552E552E552E5528196010E4B
:10592000E66EE66AE66AE66A00DFE552E552E552AF
:10593000E552280EE66E41DFE5520C0EE66E3DDFC5
:10594000E552E552E552E7CFD9FF1200D9CFE6FF85
:10595000E1CFD9FF0F0E8116FE0EDB50811281863A
:10596000010EE66EA4DEE5528196010EE66E9FDE24
:10597000E552E552E7CFD9FF1200D9CFE6FFE1CFDC
:10598000D9FF8194010EE66E92DEE552FE0EDBCF6A
:10599000E6FFDCDFE552FE0EDB38F00BE66ED6DF0D
:1059A000E552E552E7CFD9FF1200D9CFE6FFE1CFAC
:1059B000D9FF8184010EE66E7ADEE552FE0EDBCF62
:1059C000E6FFC4DFE552FE0EDB38F00BE66EBEDF0D
:1059D000E5528194E552E7CFD9FF1200D9CFE6FF17
:1059E000E1CFD9FFFE0EDBCFE6FFDFDFE552E55268
:1059F000E7CFD9FF1200D9CFE6FFE1CFD9FFFD0EE7
:105A0000DBCFF6FFFE0EDBCFF7FF0800F5500FE00F
:105A1000FD0EDBCFF6FFDB2AFE0EDBCFF7FF01E347
:105A2000DB2A0800F550E66ED9DFE552E8D7E552EB
:105A3000E7CFD9FF1200D9CFE6FFE1CFD9FF050E9E
:105A4000E126010EF36EDB6E020EDB6A030EDB6AEB
:105A5000040EDB6ADF6ADFCF14F0156A14BE156826
:105A6000FB0EDBCF16F0FC0EDBCF17F0155017182E
:105A7000E8AE02D0173404D01650145C17501558F5
:105A80002DE2FD0EDBCF14F0FE0EDBCF15F0166A13
:105A9000176A15AE02D016681768D950010FE96E63
:105AA000DACFEAFF14C00BF015C00CF016C00DF0F1
:105AB00017C00EF0EECF06F0EECF07F0EECF08F0F5
